{
  "address": "0xE6AB49e3ebbb7af31A40A7e679b85f19D1A3Ab81",
  "abi": [
    {
      "anonymous": false,
      "inputs": [
        {
          "indexed": true,
          "internalType": "address",
          "name": "user",
          "type": "address"
        },
        {
          "indexed": false,
          "internalType": "uint256",
          "name": "finalBalance",
          "type": "uint256"
        }
      ],
      "name": "ChannelClosed",
      "type": "event"
    },
    {
      "anonymous": false,
      "inputs": [
        {
          "indexed": true,
          "internalType": "address",
          "name": "user",
          "type": "address"
        },
        {
          "indexed": false,
          "internalType": "uint256",
          "name": "balance",
          "type": "uint256"
        }
      ],
      "name": "ChannelOpened",
      "type": "event"
    },
    {
      "anonymous": false,
      "inputs": [
        {
          "indexed": true,
          "internalType": "address",
          "name": "previousOwner",
          "type": "address"
        },
        {
          "indexed": true,
          "internalType": "address",
          "name": "newOwner",
          "type": "address"
        }
      ],
      "name": "OwnershipTransferred",
      "type": "event"
    },
    {
      "anonymous": false,
      "inputs": [
        {
          "indexed": true,
          "internalType": "address",
          "name": "user",
          "type": "address"
        },
        {
          "indexed": false,
          "internalType": "uint256",
          "name": "subscriptionId",
          "type": "uint256"
        }
      ],
      "name": "SubscriptionActivated",
      "type": "event"
    },
    {
      "anonymous": false,
      "inputs": [
        {
          "indexed": false,
          "internalType": "uint256",
          "name": "id",
          "type": "uint256"
        },
        {
          "indexed": false,
          "internalType": "string",
          "name": "name",
          "type": "string"
        },
        {
          "indexed": false,
          "internalType": "uint256",
          "name": "price",
          "type": "uint256"
        },
        {
          "indexed": false,
          "internalType": "uint256",
          "name": "duration",
          "type": "uint256"
        }
      ],
      "name": "SubscriptionAdded",
      "type": "event"
    },
    {
      "anonymous": false,
      "inputs": [
        {
          "indexed": true,
          "internalType": "address",
          "name": "owner",
          "type": "address"
        },
        {
          "indexed": false,
          "internalType": "uint256",
          "name": "amount",
          "type": "uint256"
        }
      ],
      "name": "Withdraw",
      "type": "event"
    },
    {
      "inputs": [
        {
          "internalType": "uint256",
          "name": "subscriptionId",
          "type": "uint256"
        }
      ],
      "name": "activateSubscription",
      "outputs": [],
      "stateMutability": "nonpayable",
      "type": "function"
    },
    {
      "inputs": [
        {
          "internalType": "string",
          "name": "name",
          "type": "string"
        },
        {
          "internalType": "uint256",
          "name": "price",
          "type": "uint256"
        },
        {
          "internalType": "uint256",
          "name": "duration",
          "type": "uint256"
        }
      ],
      "name": "addSubscription",
      "outputs": [],
      "stateMutability": "nonpayable",
      "type": "function"
    },
    {
      "inputs": [
        {
          "internalType": "address",
          "name": "",
          "type": "address"
        }
      ],
      "name": "channels",
      "outputs": [
        {
          "internalType": "address",
          "name": "user",
          "type": "address"
        },
        {
          "internalType": "uint256",
          "name": "balance",
          "type": "uint256"
        },
        {
          "internalType": "uint256",
          "name": "lastSettled",
          "type": "uint256"
        }
      ],
      "stateMutability": "view",
      "type": "function"
    },
    {
      "inputs": [],
      "name": "closeChannel",
      "outputs": [],
      "stateMutability": "nonpayable",
      "type": "function"
    },
    {
      "inputs": [
        {
          "internalType": "address",
          "name": "user",
          "type": "address"
        }
      ],
      "name": "getActiveSubscriptions",
      "outputs": [
        {
          "internalType": "bool[]",
          "name": "",
          "type": "bool[]"
        }
      ],
      "stateMutability": "view",
      "type": "function"
    },
    {
      "inputs": [],
      "name": "getAllSubscriptions",
      "outputs": [
        {
          "components": [
            {
              "internalType": "uint256",
              "name": "id",
              "type": "uint256"
            },
            {
              "internalType": "string",
              "name": "name",
              "type": "string"
            },
            {
              "internalType": "uint256",
              "name": "price",
              "type": "uint256"
            },
            {
              "internalType": "uint256",
              "name": "duration",
              "type": "uint256"
            }
          ],
          "internalType": "struct SubscriptionManager.Subscription[]",
          "name": "",
          "type": "tuple[]"
        }
      ],
      "stateMutability": "view",
      "type": "function"
    },
    {
      "inputs": [
        {
          "internalType": "address",
          "name": "user",
          "type": "address"
        }
      ],
      "name": "getChannelBalance",
      "outputs": [
        {
          "internalType": "uint256",
          "name": "",
          "type": "uint256"
        }
      ],
      "stateMutability": "view",
      "type": "function"
    },
    {
      "inputs": [],
      "name": "openChannel",
      "outputs": [],
      "stateMutability": "payable",
      "type": "function"
    },
    {
      "inputs": [],
      "name": "owner",
      "outputs": [
        {
          "internalType": "address",
          "name": "",
          "type": "address"
        }
      ],
      "stateMutability": "view",
      "type": "function"
    },
    {
      "inputs": [],
      "name": "renounceOwnership",
      "outputs": [],
      "stateMutability": "nonpayable",
      "type": "function"
    },
    {
      "inputs": [],
      "name": "subscriptionCount",
      "outputs": [
        {
          "internalType": "uint256",
          "name": "",
          "type": "uint256"
        }
      ],
      "stateMutability": "view",
      "type": "function"
    },
    {
      "inputs": [
        {
          "internalType": "uint256",
          "name": "",
          "type": "uint256"
        }
      ],
      "name": "subscriptions",
      "outputs": [
        {
          "internalType": "uint256",
          "name": "id",
          "type": "uint256"
        },
        {
          "internalType": "string",
          "name": "name",
          "type": "string"
        },
        {
          "internalType": "uint256",
          "name": "price",
          "type": "uint256"
        },
        {
          "internalType": "uint256",
          "name": "duration",
          "type": "uint256"
        }
      ],
      "stateMutability": "view",
      "type": "function"
    },
    {
      "inputs": [
        {
          "internalType": "address",
          "name": "newOwner",
          "type": "address"
        }
      ],
      "name": "transferOwnership",
      "outputs": [],
      "stateMutability": "nonpayable",
      "type": "function"
    },
    {
      "inputs": [
        {
          "internalType": "uint256",
          "name": "amount",
          "type": "uint256"
        }
      ],
      "name": "withdraw",
      "outputs": [],
      "stateMutability": "nonpayable",
      "type": "function"
    }
  ],
  "transactionHash": "0x47e2eeac4c96ba5349336cb1a0bbd0f3d1ae27fa20a20dccaec0fc8322025b42",
  "args": [],
  "numDeployments": 2,
  "solcInputHash": "4326575ab145d64ba24ab1ecf89a3588",
  "bytecode": "0x608060405234801561001057600080fd5b5061001a3361001f565b61006f565b600080546001600160a01b038381166001600160a01b0319831681178455604051919092169283917f8be0079c531659141344cd1fd0a4f28419497f9722a3daafe3b4186f6b6457e09190a35050565b61111d8061007e6000396000f3fe6080604052600436106100dd5760003560e01c80637dce34f71161007f578063b28aea5611610059578063b28aea5614610270578063c70eba2a14610285578063edb2272d146102b2578063f2fde38b146102d257600080fd5b80637dce34f7146101d457806389be87a1146102405780638da5cb5b1461024857600080fd5b80633b2af31b116100bb5780633b2af31b1461015d57806356eb00a11461017d578063715018a61461019f57806371e53754146101b457600080fd5b8063173b6d90146100e25780632d5bbf601461010b5780632e1a7d4d1461013b575b600080fd5b3480156100ee57600080fd5b506100f860035481565b6040519081526020015b60405180910390f35b34801561011757600080fd5b5061012b610126366004610cb0565b6102f2565b6040516101029493929190610d0f565b34801561014757600080fd5b5061015b610156366004610cb0565b6103a2565b005b34801561016957600080fd5b5061015b610178366004610d51565b61048a565b34801561018957600080fd5b5061019261054a565b6040516101029190610e15565b3480156101ab57600080fd5b5061015b6106d2565b3480156101c057600080fd5b506100f86101cf366004610ea0565b6106e6565b3480156101e057600080fd5b5061021b6101ef366004610ea0565b60026020819052600091825260409091208054600182015491909201546001600160a01b039092169183565b604080516001600160a01b039094168452602084019290925290820152606001610102565b61015b61073e565b34801561025457600080fd5b506000546040516001600160a01b039091168152602001610102565b34801561027c57600080fd5b5061015b610800565b34801561029157600080fd5b506102a56102a0366004610ea0565b61091a565b6040516101029190610ed0565b3480156102be57600080fd5b5061015b6102cd366004610cb0565b610a14565b3480156102de57600080fd5b5061015b6102ed366004610ea0565b610b8d565b60016020819052600091825260409091208054918101805461031390610f16565b80601f016020809104026020016040519081016040528092919081815260200182805461033f90610f16565b801561038c5780601f106103615761010080835404028352916020019161038c565b820191906000526020600020905b81548152906001019060200180831161036f57829003601f168201915b5050505050908060020154908060030154905084565b6103aa610c06565b478111156103ff5760405162461bcd60e51b815260206004820152601d60248201527f496e73756666696369656e7420636f6e74726163742062616c616e636500000060448201526064015b60405180910390fd5b600080546040516001600160a01b039091169183156108fc02918491818181858888f19350505050158015610438573d6000803e3d6000fd5b506000546001600160a01b03166001600160a01b03167f884edad9ce6fa2440d8a54cc123490eb96d2768479d49ff9c7366125a94243648260405161047f91815260200190565b60405180910390a250565b610492610c06565b60035460408051608081018252828152602080820187815282840187905260608301869052600085815260019283905293909320825181559251919291908201906104dd9082610f99565b506040820151600282015560609091015160039182015580549060006105028361106f565b91905055507fec23809d8beb703b3e88af245af5efaa3ff0ca228baf23d5acd4c60cc90538e18185858560405161053c9493929190610d0f565b60405180910390a150505050565b6060600060035467ffffffffffffffff81111561056957610569610d3b565b6040519080825280602002602001820160405280156105c557816020015b6105b26040518060800160405280600081526020016060815260200160008152602001600081525090565b8152602001906001900390816105875790505b50905060005b6003548110156106cc576000818152600160208181526040928390208351608081019094528054845291820180549184019161060690610f16565b80601f016020809104026020016040519081016040528092919081815260200182805461063290610f16565b801561067f5780601f106106545761010080835404028352916020019161067f565b820191906000526020600020905b81548152906001019060200180831161066257829003601f168201915b50505050508152602001600282015481526020016003820154815250508282815181106106ae576106ae611088565b602002602001018190525080806106c49061106f565b9150506105cb565b50919050565b6106da610c06565b6106e46000610c60565b565b6001600160a01b0381811660009081526002602052604081205490911661071f5760405162461bcd60e51b81526004016103f69061109e565b506001600160a01b031660009081526002602052604090206001015490565b336000908152600260205260409020546001600160a01b03161561079d5760405162461bcd60e51b81526020600482015260166024820152754368616e6e656c20616c72656164792065786973747360501b60448201526064016103f6565b3360008181526002602081815260409283902080546001600160a01b031916851781553460018201819055429382019390935592519182529192917faf952b0a28349f5ffff2d98aa9050ea845adbe423ff73ac5da5f268834ae3ac0910161047f565b33600090815260026020526040902080546001600160a01b03166108365760405162461bcd60e51b81526004016103f69061109e565b60018101544781111561088b5760405162461bcd60e51b815260206004820152601d60248201527f496e73756666696369656e7420636f6e74726163742062616c616e636500000060448201526064016103f6565b604051339082156108fc029083906000818181858888f193505050501580156108b8573d6000803e3d6000fd5b5060405181815233907f770342ee36990141b5b1f4b3b41a184d7968647ac7f0dbfd2d86d566c468027d9060200160405180910390a25050336000908152600260208190526040822080546001600160a01b0319168155600181018390550155565b6001600160a01b03818116600090815260026020526040902054606091166109545760405162461bcd60e51b81526004016103f69061109e565b600060035467ffffffffffffffff81111561097157610971610d3b565b60405190808252806020026020018201604052801561099a578160200160208202803683370190505b50905060005b600354811015610a0d576001600160a01b0384166000908152600260209081526040808320848452600301909152902054825160ff909116908390839081106109eb576109eb611088565b9115156020928302919091019091015280610a058161106f565b9150506109a0565b5092915050565b336000908152600260205260409020546001600160a01b0316610a495760405162461bcd60e51b81526004016103f69061109e565b6003548110610a9a5760405162461bcd60e51b815260206004820152601760248201527f496e76616c696420737562736372697074696f6e20494400000000000000000060448201526064016103f6565b600081815260016020818152604080842060028082015433875293529320909101541015610b015760405162461bcd60e51b8152602060048201526014602482015273496e73756666696369656e742062616c616e636560601b60448201526064016103f6565b60028082015433600090815260209290925260408220600101805491929091610b2b9084906110ce565b9091555050336000818152600260209081526040808320868452600301825291829020805460ff1916600117905590518481527fea0cbd7c39a8a3c9a996c6ff5ee1f9ebbff1e0cfc5b78bdcef88806d888728e1910160405180910390a25050565b610b95610c06565b6001600160a01b038116610bfa5760405162461bcd60e51b815260206004820152602660248201527f4f776e61626c653a206e6577206f776e657220697320746865207a65726f206160448201526564647265737360d01b60648201526084016103f6565b610c0381610c60565b50565b6000546001600160a01b031633146106e45760405162461bcd60e51b815260206004820181905260248201527f4f776e61626c653a2063616c6c6572206973206e6f7420746865206f776e657260448201526064016103f6565b600080546001600160a01b038381166001600160a01b0319831681178455604051919092169283917f8be0079c531659141344cd1fd0a4f28419497f9722a3daafe3b4186f6b6457e09190a35050565b600060208284031215610cc257600080fd5b5035919050565b6000815180845260005b81811015610cef57602081850181015186830182015201610cd3565b506000602082860101526020601f19601f83011685010191505092915050565b848152608060208201526000610d286080830186610cc9565b6040830194909452506060015292915050565b634e487b7160e01b600052604160045260246000fd5b600080600060608486031215610d6657600080fd5b833567ffffffffffffffff80821115610d7e57600080fd5b818601915086601f830112610d9257600080fd5b813581811115610da457610da4610d3b565b604051601f8201601f19908116603f01168101908382118183101715610dcc57610dcc610d3b565b81604052828152896020848701011115610de557600080fd5b82602086016020830137600060208483010152809750505050505060208401359150604084013590509250925092565b60006020808301818452808551808352604092508286019150828160051b87010184880160005b83811015610e9257603f19898403018552815160808151855288820151818a870152610e6a82870182610cc9565b838a0151878b0152606093840151939096019290925250509386019390860190600101610e3c565b509098975050505050505050565b600060208284031215610eb257600080fd5b81356001600160a01b0381168114610ec957600080fd5b9392505050565b6020808252825182820181905260009190848201906040850190845b81811015610f0a578351151583529284019291840191600101610eec565b50909695505050505050565b600181811c90821680610f2a57607f821691505b6020821081036106cc57634e487b7160e01b600052602260045260246000fd5b601f821115610f9457600081815260208120601f850160051c81016020861015610f715750805b601f850160051c820191505b81811015610f9057828155600101610f7d565b5050505b505050565b815167ffffffffffffffff811115610fb357610fb3610d3b565b610fc781610fc18454610f16565b84610f4a565b602080601f831160018114610ffc5760008415610fe45750858301515b600019600386901b1c1916600185901b178555610f90565b600085815260208120601f198616915b8281101561102b5788860151825594840194600190910190840161100c565b50858210156110495787850151600019600388901b60f8161c191681555b5050505050600190811b01905550565b634e487b7160e01b600052601160045260246000fd5b60006001820161108157611081611059565b5060010190565b634e487b7160e01b600052603260045260246000fd5b60208082526016908201527510da185b9b995b08191bd95cc81b9bdd08195e1a5cdd60521b604082015260600190565b818103818111156110e1576110e1611059565b9291505056fea2646970667358221220d01be95a6a837f981795e26a474568a06a098f7ad27fb2b38bb4b87ce72bd5ac64736f6c63430008110033",
  "devdoc": {
    "kind": "dev",
    "methods": {
      "owner()": {
        "details": "Returns the address of the current owner."
      },
      "renounceOwnership()": {
        "details": "Leaves the contract without owner. It will not be possible to call `onlyOwner` functions. Can only be called by the current owner. NOTE: Renouncing ownership will leave the contract without an owner, thereby disabling any functionality that is only available to the owner."
      },
      "transferOwnership(address)": {
        "details": "Transfers ownership of the contract to a new account (`newOwner`). Can only be called by the current owner."
      }
    },
    "version": 1
  },
  "userdoc": {
    "kind": "user",
    "methods": {},
    "version": 1
  },
  "storageLayout": {
    "storage": [
      {
        "astId": 7,
        "contract": "contracts/SubscriptionManager.sol:SubscriptionManager",
        "label": "_owner",
        "offset": 0,
        "slot": "0",
        "type": "t_address"
      },
      {
        "astId": 1734,
        "contract": "contracts/SubscriptionManager.sol:SubscriptionManager",
        "label": "subscriptions",
        "offset": 0,
        "slot": "1",
        "type": "t_mapping(t_uint256,t_struct(Subscription)1718_storage)"
      },
      {
        "astId": 1739,
        "contract": "contracts/SubscriptionManager.sol:SubscriptionManager",
        "label": "channels",
        "offset": 0,
        "slot": "2",
        "type": "t_mapping(t_address,t_struct(Channel)1729_storage)"
      },
      {
        "astId": 1741,
        "contract": "contracts/SubscriptionManager.sol:SubscriptionManager",
        "label": "subscriptionCount",
        "offset": 0,
        "slot": "3",
        "type": "t_uint256"
      }
    ],
    "types": {
      "t_address": {
        "encoding": "inplace",
        "label": "address",
        "numberOfBytes": "20"
      },
      "t_bool": {
        "encoding": "inplace",
        "label": "bool",
        "numberOfBytes": "1"
      },
      "t_mapping(t_address,t_struct(Channel)1729_storage)": {
        "encoding": "mapping",
        "key": "t_address",
        "label": "mapping(address => struct SubscriptionManager.Channel)",
        "numberOfBytes": "32",
        "value": "t_struct(Channel)1729_storage"
      },
      "t_mapping(t_uint256,t_bool)": {
        "encoding": "mapping",
        "key": "t_uint256",
        "label": "mapping(uint256 => bool)",
        "numberOfBytes": "32",
        "value": "t_bool"
      },
      "t_mapping(t_uint256,t_struct(Subscription)1718_storage)": {
        "encoding": "mapping",
        "key": "t_uint256",
        "label": "mapping(uint256 => struct SubscriptionManager.Subscription)",
        "numberOfBytes": "32",
        "value": "t_struct(Subscription)1718_storage"
      },
      "t_string_storage": {
        "encoding": "bytes",
        "label": "string",
        "numberOfBytes": "32"
      },
      "t_struct(Channel)1729_storage": {
        "encoding": "inplace",
        "label": "struct SubscriptionManager.Channel",
        "members": [
          {
            "astId": 1720,
            "contract": "contracts/SubscriptionManager.sol:SubscriptionManager",
            "label": "user",
            "offset": 0,
            "slot": "0",
            "type": "t_address"
          },
          {
            "astId": 1722,
            "contract": "contracts/SubscriptionManager.sol:SubscriptionManager",
            "label": "balance",
            "offset": 0,
            "slot": "1",
            "type": "t_uint256"
          },
          {
            "astId": 1724,
            "contract": "contracts/SubscriptionManager.sol:SubscriptionManager",
            "label": "lastSettled",
            "offset": 0,
            "slot": "2",
            "type": "t_uint256"
          },
          {
            "astId": 1728,
            "contract": "contracts/SubscriptionManager.sol:SubscriptionManager",
            "label": "activeSubscriptions",
            "offset": 0,
            "slot": "3",
            "type": "t_mapping(t_uint256,t_bool)"
          }
        ],
        "numberOfBytes": "128"
      },
      "t_struct(Subscription)1718_storage": {
        "encoding": "inplace",
        "label": "struct SubscriptionManager.Subscription",
        "members": [
          {
            "astId": 1711,
            "contract": "contracts/SubscriptionManager.sol:SubscriptionManager",
            "label": "id",
            "offset": 0,
            "slot": "0",
            "type": "t_uint256"
          },
          {
            "astId": 1713,
            "contract": "contracts/SubscriptionManager.sol:SubscriptionManager",
            "label": "name",
            "offset": 0,
            "slot": "1",
            "type": "t_string_storage"
          },
          {
            "astId": 1715,
            "contract": "contracts/SubscriptionManager.sol:SubscriptionManager",
            "label": "price",
            "offset": 0,
            "slot": "2",
            "type": "t_uint256"
          },
          {
            "astId": 1717,
            "contract": "contracts/SubscriptionManager.sol:SubscriptionManager",
            "label": "duration",
            "offset": 0,
            "slot": "3",
            "type": "t_uint256"
          }
        ],
        "numberOfBytes": "128"
      },
      "t_uint256": {
        "encoding": "inplace",
        "label": "uint256",
        "numberOfBytes": "32"
      }
    }
  }
}