{
  "address": "0x707BADcb6d42706A54A53a41804cE1c919E7a88b",
  "abi": [
    {
      "anonymous": false,
      "inputs": [
        {
          "indexed": true,
          "internalType": "address",
          "name": "user",
          "type": "address"
        },
        {
          "indexed": false,
          "internalType": "uint256",
          "name": "finalBalance",
          "type": "uint256"
        }
      ],
      "name": "ChannelClosed",
      "type": "event"
    },
    {
      "anonymous": false,
      "inputs": [
        {
          "indexed": true,
          "internalType": "address",
          "name": "user",
          "type": "address"
        },
        {
          "indexed": false,
          "internalType": "uint256",
          "name": "balance",
          "type": "uint256"
        }
      ],
      "name": "ChannelOpened",
      "type": "event"
    },
    {
      "anonymous": false,
      "inputs": [
        {
          "indexed": true,
          "internalType": "address",
          "name": "previousOwner",
          "type": "address"
        },
        {
          "indexed": true,
          "internalType": "address",
          "name": "newOwner",
          "type": "address"
        }
      ],
      "name": "OwnershipTransferred",
      "type": "event"
    },
    {
      "anonymous": false,
      "inputs": [
        {
          "indexed": true,
          "internalType": "address",
          "name": "user",
          "type": "address"
        },
        {
          "indexed": false,
          "internalType": "uint256",
          "name": "subscriptionId",
          "type": "uint256"
        }
      ],
      "name": "SubscriptionActivated",
      "type": "event"
    },
    {
      "anonymous": false,
      "inputs": [
        {
          "indexed": false,
          "internalType": "uint256",
          "name": "id",
          "type": "uint256"
        },
        {
          "indexed": false,
          "internalType": "string",
          "name": "name",
          "type": "string"
        },
        {
          "indexed": false,
          "internalType": "uint256",
          "name": "price",
          "type": "uint256"
        },
        {
          "indexed": false,
          "internalType": "uint256",
          "name": "duration",
          "type": "uint256"
        }
      ],
      "name": "SubscriptionAdded",
      "type": "event"
    },
    {
      "anonymous": false,
      "inputs": [
        {
          "indexed": true,
          "internalType": "address",
          "name": "owner",
          "type": "address"
        },
        {
          "indexed": false,
          "internalType": "uint256",
          "name": "amount",
          "type": "uint256"
        }
      ],
      "name": "Withdraw",
      "type": "event"
    },
    {
      "inputs": [
        {
          "internalType": "uint256",
          "name": "subscriptionId",
          "type": "uint256"
        },
        {
          "internalType": "bytes",
          "name": "signature",
          "type": "bytes"
        }
      ],
      "name": "activateSubscription",
      "outputs": [],
      "stateMutability": "nonpayable",
      "type": "function"
    },
    {
      "inputs": [
        {
          "internalType": "string",
          "name": "name",
          "type": "string"
        },
        {
          "internalType": "uint256",
          "name": "price",
          "type": "uint256"
        },
        {
          "internalType": "uint256",
          "name": "duration",
          "type": "uint256"
        }
      ],
      "name": "addSubscription",
      "outputs": [],
      "stateMutability": "nonpayable",
      "type": "function"
    },
    {
      "inputs": [
        {
          "internalType": "address",
          "name": "",
          "type": "address"
        }
      ],
      "name": "channels",
      "outputs": [
        {
          "internalType": "address",
          "name": "user",
          "type": "address"
        },
        {
          "internalType": "uint256",
          "name": "balance",
          "type": "uint256"
        },
        {
          "internalType": "uint256",
          "name": "lastSettled",
          "type": "uint256"
        }
      ],
      "stateMutability": "view",
      "type": "function"
    },
    {
      "inputs": [],
      "name": "closeChannel",
      "outputs": [],
      "stateMutability": "nonpayable",
      "type": "function"
    },
    {
      "inputs": [
        {
          "internalType": "address",
          "name": "user",
          "type": "address"
        }
      ],
      "name": "getActiveSubscriptions",
      "outputs": [
        {
          "internalType": "bool[]",
          "name": "",
          "type": "bool[]"
        }
      ],
      "stateMutability": "view",
      "type": "function"
    },
    {
      "inputs": [],
      "name": "getAllSubscriptions",
      "outputs": [
        {
          "components": [
            {
              "internalType": "uint256",
              "name": "id",
              "type": "uint256"
            },
            {
              "internalType": "string",
              "name": "name",
              "type": "string"
            },
            {
              "internalType": "uint256",
              "name": "price",
              "type": "uint256"
            },
            {
              "internalType": "uint256",
              "name": "duration",
              "type": "uint256"
            }
          ],
          "internalType": "struct SubscriptionManager.Subscription[]",
          "name": "",
          "type": "tuple[]"
        }
      ],
      "stateMutability": "view",
      "type": "function"
    },
    {
      "inputs": [
        {
          "internalType": "address",
          "name": "user",
          "type": "address"
        }
      ],
      "name": "getChannelBalance",
      "outputs": [
        {
          "internalType": "uint256",
          "name": "",
          "type": "uint256"
        }
      ],
      "stateMutability": "view",
      "type": "function"
    },
    {
      "inputs": [],
      "name": "openChannel",
      "outputs": [],
      "stateMutability": "payable",
      "type": "function"
    },
    {
      "inputs": [],
      "name": "owner",
      "outputs": [
        {
          "internalType": "address",
          "name": "",
          "type": "address"
        }
      ],
      "stateMutability": "view",
      "type": "function"
    },
    {
      "inputs": [],
      "name": "renounceOwnership",
      "outputs": [],
      "stateMutability": "nonpayable",
      "type": "function"
    },
    {
      "inputs": [],
      "name": "subscriptionCount",
      "outputs": [
        {
          "internalType": "uint256",
          "name": "",
          "type": "uint256"
        }
      ],
      "stateMutability": "view",
      "type": "function"
    },
    {
      "inputs": [
        {
          "internalType": "uint256",
          "name": "",
          "type": "uint256"
        }
      ],
      "name": "subscriptions",
      "outputs": [
        {
          "internalType": "uint256",
          "name": "id",
          "type": "uint256"
        },
        {
          "internalType": "string",
          "name": "name",
          "type": "string"
        },
        {
          "internalType": "uint256",
          "name": "price",
          "type": "uint256"
        },
        {
          "internalType": "uint256",
          "name": "duration",
          "type": "uint256"
        }
      ],
      "stateMutability": "view",
      "type": "function"
    },
    {
      "inputs": [
        {
          "internalType": "address",
          "name": "newOwner",
          "type": "address"
        }
      ],
      "name": "transferOwnership",
      "outputs": [],
      "stateMutability": "nonpayable",
      "type": "function"
    },
    {
      "inputs": [
        {
          "internalType": "uint256",
          "name": "amount",
          "type": "uint256"
        }
      ],
      "name": "withdraw",
      "outputs": [],
      "stateMutability": "nonpayable",
      "type": "function"
    }
  ],
  "transactionHash": "0xbecbf6ad1ef122dc63202c512122332aa2d23c3b7a16943fba5cf854bf2f795a",
  "args": [],
  "numDeployments": 1,
  "solcInputHash": "c21d7a944c91eaae8ddf7651fc1dac7f",
  "bytecode": "0x608060405234801561001057600080fd5b5061001a3361001f565b61006f565b600080546001600160a01b038381166001600160a01b0319831681178455604051919092169283917f8be0079c531659141344cd1fd0a4f28419497f9722a3daafe3b4186f6b6457e09190a35050565b6111e28061007e6000396000f3fe6080604052600436106100dd5760003560e01c806371e537541161007f5780638da5cb5b116100595780638da5cb5b14610268578063b28aea5614610290578063c70eba2a146102a5578063f2fde38b146102d257600080fd5b806371e53754146101d45780637dce34f7146101f457806389be87a11461026057600080fd5b80632e1a7d4d116100bb5780632e1a7d4d1461015d5780633b2af31b1461017d57806356eb00a11461019d578063715018a6146101bf57600080fd5b80631176cd5f146100e2578063173b6d90146101045780632d5bbf601461012d575b600080fd5b3480156100ee57600080fd5b506101026100fd366004610d92565b6102f2565b005b34801561011057600080fd5b5061011a60035481565b6040519081526020015b60405180910390f35b34801561013957600080fd5b5061014d610148366004610ded565b6104c6565b6040516101249493929190610e4c565b34801561016957600080fd5b50610102610178366004610ded565b610576565b34801561018957600080fd5b50610102610198366004610e78565b610659565b3480156101a957600080fd5b506101b2610719565b6040516101249190610eda565b3480156101cb57600080fd5b506101026108a1565b3480156101e057600080fd5b5061011a6101ef366004610f65565b6108b5565b34801561020057600080fd5b5061023b61020f366004610f65565b60026020819052600091825260409091208054600182015491909201546001600160a01b039092169183565b604080516001600160a01b039094168452602084019290925290820152606001610124565b61010261090d565b34801561027457600080fd5b506000546040516001600160a01b039091168152602001610124565b34801561029c57600080fd5b506101026109cf565b3480156102b157600080fd5b506102c56102c0366004610f65565b610ae9565b6040516101249190610f95565b3480156102de57600080fd5b506101026102ed366004610f65565b610be3565b336000908152600260205260409020546001600160a01b03166103305760405162461bcd60e51b815260040161032790610fdb565b60405180910390fd5b60035482106103815760405162461bcd60e51b815260206004820152601760248201527f496e76616c696420737562736372697074696f6e2049440000000000000000006044820152606401610327565b6000828152600160208181526040808420600280820154338752935293209091015410156103e85760405162461bcd60e51b8152602060048201526014602482015273496e73756666696369656e742062616c616e636560601b6044820152606401610327565b81516041146104395760405162461bcd60e51b815260206004820152601860248201527f496e76616c6964207369676e6174757265206c656e67746800000000000000006044820152606401610327565b60028082015433600090815260209290925260408220600101805491929091610463908490611021565b9091555050336000818152600260209081526040808320878452600301825291829020805460ff1916600117905590518581527fea0cbd7c39a8a3c9a996c6ff5ee1f9ebbff1e0cfc5b78bdcef88806d888728e1910160405180910390a2505050565b6001602081905260009182526040909120805491810180546104e79061103a565b80601f01602080910402602001604051908101604052809291908181526020018280546105139061103a565b80156105605780601f1061053557610100808354040283529160200191610560565b820191906000526020600020905b81548152906001019060200180831161054357829003601f168201915b5050505050908060020154908060030154905084565b61057e610c5c565b478111156105ce5760405162461bcd60e51b815260206004820152601d60248201527f496e73756666696369656e7420636f6e74726163742062616c616e63650000006044820152606401610327565b600080546040516001600160a01b039091169183156108fc02918491818181858888f19350505050158015610607573d6000803e3d6000fd5b506000546001600160a01b03166001600160a01b03167f884edad9ce6fa2440d8a54cc123490eb96d2768479d49ff9c7366125a94243648260405161064e91815260200190565b60405180910390a250565b610661610c5c565b60035460408051608081018252828152602080820187815282840187905260608301869052600085815260019283905293909320825181559251919291908201906106ac90826110bd565b506040820151600282015560609091015160039182015580549060006106d18361117d565b91905055507fec23809d8beb703b3e88af245af5efaa3ff0ca228baf23d5acd4c60cc90538e18185858560405161070b9493929190610e4c565b60405180910390a150505050565b6060600060035467ffffffffffffffff81111561073857610738610d06565b60405190808252806020026020018201604052801561079457816020015b6107816040518060800160405280600081526020016060815260200160008152602001600081525090565b8152602001906001900390816107565790505b50905060005b60035481101561089b57600081815260016020818152604092839020835160808101909452805484529182018054918401916107d59061103a565b80601f01602080910402602001604051908101604052809291908181526020018280546108019061103a565b801561084e5780601f106108235761010080835404028352916020019161084e565b820191906000526020600020905b81548152906001019060200180831161083157829003601f168201915b505050505081526020016002820154815260200160038201548152505082828151811061087d5761087d611196565b602002602001018190525080806108939061117d565b91505061079a565b50919050565b6108a9610c5c565b6108b36000610cb6565b565b6001600160a01b038181166000908152600260205260408120549091166108ee5760405162461bcd60e51b815260040161032790610fdb565b506001600160a01b031660009081526002602052604090206001015490565b336000908152600260205260409020546001600160a01b03161561096c5760405162461bcd60e51b81526020600482015260166024820152754368616e6e656c20616c72656164792065786973747360501b6044820152606401610327565b3360008181526002602081815260409283902080546001600160a01b031916851781553460018201819055429382019390935592519182529192917faf952b0a28349f5ffff2d98aa9050ea845adbe423ff73ac5da5f268834ae3ac0910161064e565b33600090815260026020526040902080546001600160a01b0316610a055760405162461bcd60e51b815260040161032790610fdb565b600181015447811115610a5a5760405162461bcd60e51b815260206004820152601d60248201527f496e73756666696369656e7420636f6e74726163742062616c616e63650000006044820152606401610327565b604051339082156108fc029083906000818181858888f19350505050158015610a87573d6000803e3d6000fd5b5060405181815233907f770342ee36990141b5b1f4b3b41a184d7968647ac7f0dbfd2d86d566c468027d9060200160405180910390a25050336000908152600260208190526040822080546001600160a01b0319168155600181018390550155565b6001600160a01b0381811660009081526002602052604090205460609116610b235760405162461bcd60e51b815260040161032790610fdb565b600060035467ffffffffffffffff811115610b4057610b40610d06565b604051908082528060200260200182016040528015610b69578160200160208202803683370190505b50905060005b600354811015610bdc576001600160a01b0384166000908152600260209081526040808320848452600301909152902054825160ff90911690839083908110610bba57610bba611196565b9115156020928302919091019091015280610bd48161117d565b915050610b6f565b5092915050565b610beb610c5c565b6001600160a01b038116610c505760405162461bcd60e51b815260206004820152602660248201527f4f776e61626c653a206e6577206f776e657220697320746865207a65726f206160448201526564647265737360d01b6064820152608401610327565b610c5981610cb6565b50565b6000546001600160a01b031633146108b35760405162461bcd60e51b815260206004820181905260248201527f4f776e61626c653a2063616c6c6572206973206e6f7420746865206f776e65726044820152606401610327565b600080546001600160a01b038381166001600160a01b0319831681178455604051919092169283917f8be0079c531659141344cd1fd0a4f28419497f9722a3daafe3b4186f6b6457e09190a35050565b634e487b7160e01b600052604160045260246000fd5b600067ffffffffffffffff80841115610d3757610d37610d06565b604051601f8501601f19908116603f01168101908282118183101715610d5f57610d5f610d06565b81604052809350858152868686011115610d7857600080fd5b858560208301376000602087830101525050509392505050565b60008060408385031215610da557600080fd5b82359150602083013567ffffffffffffffff811115610dc357600080fd5b8301601f81018513610dd457600080fd5b610de385823560208401610d1c565b9150509250929050565b600060208284031215610dff57600080fd5b5035919050565b6000815180845260005b81811015610e2c57602081850181015186830182015201610e10565b506000602082860101526020601f19601f83011685010191505092915050565b848152608060208201526000610e656080830186610e06565b6040830194909452506060015292915050565b600080600060608486031215610e8d57600080fd5b833567ffffffffffffffff811115610ea457600080fd5b8401601f81018613610eb557600080fd5b610ec486823560208401610d1c565b9660208601359650604090950135949350505050565b60006020808301818452808551808352604092508286019150828160051b87010184880160005b83811015610f5757603f19898403018552815160808151855288820151818a870152610f2f82870182610e06565b838a0151878b0152606093840151939096019290925250509386019390860190600101610f01565b509098975050505050505050565b600060208284031215610f7757600080fd5b81356001600160a01b0381168114610f8e57600080fd5b9392505050565b6020808252825182820181905260009190848201906040850190845b81811015610fcf578351151583529284019291840191600101610fb1565b50909695505050505050565b60208082526016908201527510da185b9b995b08191bd95cc81b9bdd08195e1a5cdd60521b604082015260600190565b634e487b7160e01b600052601160045260246000fd5b818103818111156110345761103461100b565b92915050565b600181811c9082168061104e57607f821691505b60208210810361089b57634e487b7160e01b600052602260045260246000fd5b601f8211156110b857600081815260208120601f850160051c810160208610156110955750805b601f850160051c820191505b818110156110b4578281556001016110a1565b5050505b505050565b815167ffffffffffffffff8111156110d7576110d7610d06565b6110eb816110e5845461103a565b8461106e565b602080601f83116001811461112057600084156111085750858301515b600019600386901b1c1916600185901b1785556110b4565b600085815260208120601f198616915b8281101561114f57888601518255948401946001909101908401611130565b508582101561116d5787850151600019600388901b60f8161c191681555b5050505050600190811b01905550565b60006001820161118f5761118f61100b565b5060010190565b634e487b7160e01b600052603260045260246000fdfea2646970667358221220a3c37ff4e4db73c457dbbd47dc0dc552e760713b9da5b1e19211b5726b1fd93964736f6c63430008110033",
  "devdoc": {
    "kind": "dev",
    "methods": {
      "owner()": {
        "details": "Returns the address of the current owner."
      },
      "renounceOwnership()": {
        "details": "Leaves the contract without owner. It will not be possible to call `onlyOwner` functions. Can only be called by the current owner. NOTE: Renouncing ownership will leave the contract without an owner, thereby disabling any functionality that is only available to the owner."
      },
      "transferOwnership(address)": {
        "details": "Transfers ownership of the contract to a new account (`newOwner`). Can only be called by the current owner."
      }
    },
    "version": 1
  },
  "userdoc": {
    "kind": "user",
    "methods": {},
    "version": 1
  },
  "storageLayout": {
    "storage": [
      {
        "astId": 7,
        "contract": "contracts/SubscriptionManager.sol:SubscriptionManager",
        "label": "_owner",
        "offset": 0,
        "slot": "0",
        "type": "t_address"
      },
      {
        "astId": 1734,
        "contract": "contracts/SubscriptionManager.sol:SubscriptionManager",
        "label": "subscriptions",
        "offset": 0,
        "slot": "1",
        "type": "t_mapping(t_uint256,t_struct(Subscription)1718_storage)"
      },
      {
        "astId": 1739,
        "contract": "contracts/SubscriptionManager.sol:SubscriptionManager",
        "label": "channels",
        "offset": 0,
        "slot": "2",
        "type": "t_mapping(t_address,t_struct(Channel)1729_storage)"
      },
      {
        "astId": 1741,
        "contract": "contracts/SubscriptionManager.sol:SubscriptionManager",
        "label": "subscriptionCount",
        "offset": 0,
        "slot": "3",
        "type": "t_uint256"
      }
    ],
    "types": {
      "t_address": {
        "encoding": "inplace",
        "label": "address",
        "numberOfBytes": "20"
      },
      "t_bool": {
        "encoding": "inplace",
        "label": "bool",
        "numberOfBytes": "1"
      },
      "t_mapping(t_address,t_struct(Channel)1729_storage)": {
        "encoding": "mapping",
        "key": "t_address",
        "label": "mapping(address => struct SubscriptionManager.Channel)",
        "numberOfBytes": "32",
        "value": "t_struct(Channel)1729_storage"
      },
      "t_mapping(t_uint256,t_bool)": {
        "encoding": "mapping",
        "key": "t_uint256",
        "label": "mapping(uint256 => bool)",
        "numberOfBytes": "32",
        "value": "t_bool"
      },
      "t_mapping(t_uint256,t_struct(Subscription)1718_storage)": {
        "encoding": "mapping",
        "key": "t_uint256",
        "label": "mapping(uint256 => struct SubscriptionManager.Subscription)",
        "numberOfBytes": "32",
        "value": "t_struct(Subscription)1718_storage"
      },
      "t_string_storage": {
        "encoding": "bytes",
        "label": "string",
        "numberOfBytes": "32"
      },
      "t_struct(Channel)1729_storage": {
        "encoding": "inplace",
        "label": "struct SubscriptionManager.Channel",
        "members": [
          {
            "astId": 1720,
            "contract": "contracts/SubscriptionManager.sol:SubscriptionManager",
            "label": "user",
            "offset": 0,
            "slot": "0",
            "type": "t_address"
          },
          {
            "astId": 1722,
            "contract": "contracts/SubscriptionManager.sol:SubscriptionManager",
            "label": "balance",
            "offset": 0,
            "slot": "1",
            "type": "t_uint256"
          },
          {
            "astId": 1724,
            "contract": "contracts/SubscriptionManager.sol:SubscriptionManager",
            "label": "lastSettled",
            "offset": 0,
            "slot": "2",
            "type": "t_uint256"
          },
          {
            "astId": 1728,
            "contract": "contracts/SubscriptionManager.sol:SubscriptionManager",
            "label": "activeSubscriptions",
            "offset": 0,
            "slot": "3",
            "type": "t_mapping(t_uint256,t_bool)"
          }
        ],
        "numberOfBytes": "128"
      },
      "t_struct(Subscription)1718_storage": {
        "encoding": "inplace",
        "label": "struct SubscriptionManager.Subscription",
        "members": [
          {
            "astId": 1711,
            "contract": "contracts/SubscriptionManager.sol:SubscriptionManager",
            "label": "id",
            "offset": 0,
            "slot": "0",
            "type": "t_uint256"
          },
          {
            "astId": 1713,
            "contract": "contracts/SubscriptionManager.sol:SubscriptionManager",
            "label": "name",
            "offset": 0,
            "slot": "1",
            "type": "t_string_storage"
          },
          {
            "astId": 1715,
            "contract": "contracts/SubscriptionManager.sol:SubscriptionManager",
            "label": "price",
            "offset": 0,
            "slot": "2",
            "type": "t_uint256"
          },
          {
            "astId": 1717,
            "contract": "contracts/SubscriptionManager.sol:SubscriptionManager",
            "label": "duration",
            "offset": 0,
            "slot": "3",
            "type": "t_uint256"
          }
        ],
        "numberOfBytes": "128"
      },
      "t_uint256": {
        "encoding": "inplace",
        "label": "uint256",
        "numberOfBytes": "32"
      }
    }
  }
}