{
  "address": "0xD5CD82b9809DeF1545509bB0C621b6ccf0Dc463f",
  "abi": [
    {
      "inputs": [],
      "stateMutability": "nonpayable",
      "type": "constructor"
    },
    {
      "anonymous": false,
      "inputs": [
        {
          "indexed": true,
          "internalType": "address",
          "name": "user",
          "type": "address"
        },
        {
          "indexed": false,
          "internalType": "uint256",
          "name": "finalBalance",
          "type": "uint256"
        }
      ],
      "name": "ChannelClosed",
      "type": "event"
    },
    {
      "anonymous": false,
      "inputs": [
        {
          "indexed": true,
          "internalType": "address",
          "name": "user",
          "type": "address"
        },
        {
          "indexed": false,
          "internalType": "uint256",
          "name": "balance",
          "type": "uint256"
        }
      ],
      "name": "ChannelOpened",
      "type": "event"
    },
    {
      "anonymous": false,
      "inputs": [
        {
          "indexed": true,
          "internalType": "address",
          "name": "previousOwner",
          "type": "address"
        },
        {
          "indexed": true,
          "internalType": "address",
          "name": "newOwner",
          "type": "address"
        }
      ],
      "name": "OwnershipTransferred",
      "type": "event"
    },
    {
      "anonymous": false,
      "inputs": [
        {
          "indexed": false,
          "internalType": "uint256",
          "name": "id",
          "type": "uint256"
        },
        {
          "indexed": false,
          "internalType": "string",
          "name": "name",
          "type": "string"
        },
        {
          "indexed": false,
          "internalType": "uint256",
          "name": "price",
          "type": "uint256"
        },
        {
          "indexed": false,
          "internalType": "uint256",
          "name": "duration",
          "type": "uint256"
        }
      ],
      "name": "SubscriptionAdded",
      "type": "event"
    },
    {
      "anonymous": false,
      "inputs": [
        {
          "indexed": true,
          "internalType": "address",
          "name": "owner",
          "type": "address"
        },
        {
          "indexed": false,
          "internalType": "uint256",
          "name": "amount",
          "type": "uint256"
        }
      ],
      "name": "Withdraw",
      "type": "event"
    },
    {
      "inputs": [
        {
          "internalType": "uint256",
          "name": "subscriptionId",
          "type": "uint256"
        }
      ],
      "name": "activateSubscription",
      "outputs": [],
      "stateMutability": "nonpayable",
      "type": "function"
    },
    {
      "inputs": [
        {
          "internalType": "address",
          "name": "",
          "type": "address"
        },
        {
          "internalType": "uint256",
          "name": "",
          "type": "uint256"
        }
      ],
      "name": "activeSubscriptions",
      "outputs": [
        {
          "internalType": "uint256",
          "name": "",
          "type": "uint256"
        }
      ],
      "stateMutability": "view",
      "type": "function"
    },
    {
      "inputs": [
        {
          "internalType": "string",
          "name": "name",
          "type": "string"
        },
        {
          "internalType": "uint256",
          "name": "price",
          "type": "uint256"
        },
        {
          "internalType": "uint256",
          "name": "duration",
          "type": "uint256"
        }
      ],
      "name": "addSubscription",
      "outputs": [],
      "stateMutability": "nonpayable",
      "type": "function"
    },
    {
      "inputs": [
        {
          "internalType": "address",
          "name": "",
          "type": "address"
        }
      ],
      "name": "channels",
      "outputs": [
        {
          "internalType": "address",
          "name": "user",
          "type": "address"
        },
        {
          "internalType": "uint256",
          "name": "balance",
          "type": "uint256"
        },
        {
          "internalType": "uint256",
          "name": "lastSettled",
          "type": "uint256"
        }
      ],
      "stateMutability": "view",
      "type": "function"
    },
    {
      "inputs": [],
      "name": "closeChannel",
      "outputs": [],
      "stateMutability": "nonpayable",
      "type": "function"
    },
    {
      "inputs": [
        {
          "internalType": "address",
          "name": "user",
          "type": "address"
        }
      ],
      "name": "getActiveSubscriptions",
      "outputs": [
        {
          "internalType": "bool[]",
          "name": "",
          "type": "bool[]"
        }
      ],
      "stateMutability": "view",
      "type": "function"
    },
    {
      "inputs": [],
      "name": "getAllSubscriptions",
      "outputs": [
        {
          "components": [
            {
              "internalType": "uint256",
              "name": "id",
              "type": "uint256"
            },
            {
              "internalType": "string",
              "name": "name",
              "type": "string"
            },
            {
              "internalType": "uint256",
              "name": "price",
              "type": "uint256"
            },
            {
              "internalType": "uint256",
              "name": "duration",
              "type": "uint256"
            }
          ],
          "internalType": "struct SubscriptionManager.Subscription[]",
          "name": "",
          "type": "tuple[]"
        }
      ],
      "stateMutability": "view",
      "type": "function"
    },
    {
      "inputs": [
        {
          "internalType": "address",
          "name": "user",
          "type": "address"
        }
      ],
      "name": "getChannelBalance",
      "outputs": [
        {
          "internalType": "uint256",
          "name": "",
          "type": "uint256"
        }
      ],
      "stateMutability": "view",
      "type": "function"
    },
    {
      "inputs": [
        {
          "internalType": "uint256",
          "name": "id",
          "type": "uint256"
        }
      ],
      "name": "getSubscriptionDetails",
      "outputs": [
        {
          "internalType": "string",
          "name": "",
          "type": "string"
        },
        {
          "internalType": "uint256",
          "name": "",
          "type": "uint256"
        },
        {
          "internalType": "uint256",
          "name": "",
          "type": "uint256"
        }
      ],
      "stateMutability": "view",
      "type": "function"
    },
    {
      "inputs": [],
      "name": "openChannel",
      "outputs": [],
      "stateMutability": "payable",
      "type": "function"
    },
    {
      "inputs": [],
      "name": "owner",
      "outputs": [
        {
          "internalType": "address",
          "name": "",
          "type": "address"
        }
      ],
      "stateMutability": "view",
      "type": "function"
    },
    {
      "inputs": [],
      "name": "renounceOwnership",
      "outputs": [],
      "stateMutability": "nonpayable",
      "type": "function"
    },
    {
      "inputs": [],
      "name": "subscriptionCount",
      "outputs": [
        {
          "internalType": "uint256",
          "name": "",
          "type": "uint256"
        }
      ],
      "stateMutability": "view",
      "type": "function"
    },
    {
      "inputs": [
        {
          "internalType": "uint256",
          "name": "",
          "type": "uint256"
        }
      ],
      "name": "subscriptions",
      "outputs": [
        {
          "internalType": "uint256",
          "name": "id",
          "type": "uint256"
        },
        {
          "internalType": "string",
          "name": "name",
          "type": "string"
        },
        {
          "internalType": "uint256",
          "name": "price",
          "type": "uint256"
        },
        {
          "internalType": "uint256",
          "name": "duration",
          "type": "uint256"
        }
      ],
      "stateMutability": "view",
      "type": "function"
    },
    {
      "inputs": [
        {
          "internalType": "address",
          "name": "newOwner",
          "type": "address"
        }
      ],
      "name": "transferOwnership",
      "outputs": [],
      "stateMutability": "nonpayable",
      "type": "function"
    },
    {
      "inputs": [
        {
          "internalType": "address",
          "name": "user",
          "type": "address"
        },
        {
          "internalType": "uint256",
          "name": "subscriptionId",
          "type": "uint256"
        },
        {
          "internalType": "uint256",
          "name": "timestamp",
          "type": "uint256"
        },
        {
          "internalType": "bytes",
          "name": "signature",
          "type": "bytes"
        }
      ],
      "name": "verifySubscription",
      "outputs": [
        {
          "internalType": "bool",
          "name": "",
          "type": "bool"
        }
      ],
      "stateMutability": "pure",
      "type": "function"
    },
    {
      "inputs": [
        {
          "internalType": "uint256",
          "name": "amount",
          "type": "uint256"
        }
      ],
      "name": "withdraw",
      "outputs": [],
      "stateMutability": "nonpayable",
      "type": "function"
    }
  ],
  "transactionHash": "0xcd9032b0dfa5360461ae86fdbbf2be40eb84bc1cdcc9ac78e3a0e1b9560168f1",
  "args": [],
  "numDeployments": 1,
  "solcInputHash": "c8ba4fe5b12c3be9b8fab37106f7d439",
  "bytecode": "0x608060405234801561001057600080fd5b5061001a3361001f565b61006f565b600080546001600160a01b038381166001600160a01b0319831681178455604051919092169283917f8be0079c531659141344cd1fd0a4f28419497f9722a3daafe3b4186f6b6457e09190a35050565b61172b8061007e6000396000f3fe6080604052600436106100fe5760003560e01c806389be87a111610095578063b2a6877111610064578063b2a68771146102d5578063c70eba2a146102f5578063d4f1097514610322578063edb2272d14610352578063f2fde38b1461037257600080fd5b806389be87a1146102615780638da5cb5b146102695780639cd3ef8014610291578063b28aea56146102c057600080fd5b806356eb00a1116100d157806356eb00a11461019e578063715018a6146101c057806371e53754146101d55780637dce34f7146101f557600080fd5b8063173b6d90146101035780632d5bbf601461012c5780632e1a7d4d1461015c5780633b2af31b1461017e575b600080fd5b34801561010f57600080fd5b5061011960045481565b6040519081526020015b60405180910390f35b34801561013857600080fd5b5061014c6101473660046111c8565b610392565b6040516101239493929190611227565b34801561016857600080fd5b5061017c6101773660046111c8565b610442565b005b34801561018a57600080fd5b5061017c6101993660046112df565b61052a565b3480156101aa57600080fd5b506101b36105ec565b6040516101239190611341565b3480156101cc57600080fd5b5061017c610774565b3480156101e157600080fd5b506101196101f03660046113e8565b610788565b34801561020157600080fd5b5061023c6102103660046113e8565b60026020819052600091825260409091208054600182015491909201546001600160a01b039092169183565b604080516001600160a01b039094168452602084019290925290820152606001610123565b61017c6107e0565b34801561027557600080fd5b506000546040516001600160a01b039091168152602001610123565b34801561029d57600080fd5b506102b16102ac3660046111c8565b6108a2565b6040516101239392919061140a565b3480156102cc57600080fd5b5061017c6109d9565b3480156102e157600080fd5b506101196102f036600461142f565b610af3565b34801561030157600080fd5b506103156103103660046113e8565b610b24565b6040516101239190611459565b34801561032e57600080fd5b5061034261033d36600461149f565b610c1e565b6040519015158152602001610123565b34801561035e57600080fd5b5061017c61036d3660046111c8565b610ccc565b34801561037e57600080fd5b5061017c61038d3660046113e8565b610e2c565b6001602081905260009182526040909120805491810180546103b390611514565b80601f01602080910402602001604051908101604052809291908181526020018280546103df90611514565b801561042c5780601f106104015761010080835404028352916020019161042c565b820191906000526020600020905b81548152906001019060200180831161040f57829003601f168201915b5050505050908060020154908060030154905084565b61044a610ea5565b4781111561049f5760405162461bcd60e51b815260206004820152601d60248201527f496e73756666696369656e7420636f6e74726163742062616c616e636500000060448201526064015b60405180910390fd5b600080546040516001600160a01b039091169183156108fc02918491818181858888f193505050501580156104d8573d6000803e3d6000fd5b506000546001600160a01b03166001600160a01b03167f884edad9ce6fa2440d8a54cc123490eb96d2768479d49ff9c7366125a94243648260405161051f91815260200190565b60405180910390a250565b610532610ea5565b600454604080516080810182528281526020808201878152828401879052606083018690526000858152600192839052939093208251815592519192919082019061057d9082611597565b5060408201516002820155606090910151600390910155600480549060006105a48361166d565b91905055507fec23809d8beb703b3e88af245af5efaa3ff0ca228baf23d5acd4c60cc90538e1818585856040516105de9493929190611227565b60405180910390a150505050565b6060600060045467ffffffffffffffff81111561060b5761060b611253565b60405190808252806020026020018201604052801561066757816020015b6106546040518060800160405280600081526020016060815260200160008152602001600081525090565b8152602001906001900390816106295790505b50905060005b60045481101561076e57600081815260016020818152604092839020835160808101909452805484529182018054918401916106a890611514565b80601f01602080910402602001604051908101604052809291908181526020018280546106d490611514565b80156107215780601f106106f657610100808354040283529160200191610721565b820191906000526020600020905b81548152906001019060200180831161070457829003601f168201915b505050505081526020016002820154815260200160038201548152505082828151811061075057610750611686565b602002602001018190525080806107669061166d565b91505061066d565b50919050565b61077c610ea5565b6107866000610eff565b565b6001600160a01b038181166000908152600260205260408120549091166107c15760405162461bcd60e51b81526004016104969061169c565b506001600160a01b031660009081526002602052604090206001015490565b336000908152600260205260409020546001600160a01b03161561083f5760405162461bcd60e51b81526020600482015260166024820152754368616e6e656c20616c72656164792065786973747360501b6044820152606401610496565b3360008181526002602081815260409283902080546001600160a01b031916851781553460018201819055429382019390935592519182529192917faf952b0a28349f5ffff2d98aa9050ea845adbe423ff73ac5da5f268834ae3ac0910161051f565b606060008060045484106108f25760405162461bcd60e51b8152602060048201526017602482015276125b9d985b1a59081cdd589cd8dc9a5c1d1a5bdb881251604a1b6044820152606401610496565b600084815260016020818152604080842081516080810190925280548252928301805491939284019161092490611514565b80601f016020809104026020016040519081016040528092919081815260200182805461095090611514565b801561099d5780601f106109725761010080835404028352916020019161099d565b820191906000526020600020905b81548152906001019060200180831161098057829003601f168201915b50505050508152602001600282015481526020016003820154815250509050806020015181604001518260600151935093509350509193909250565b33600090815260026020526040902080546001600160a01b0316610a0f5760405162461bcd60e51b81526004016104969061169c565b600181015447811115610a645760405162461bcd60e51b815260206004820152601d60248201527f496e73756666696369656e7420636f6e74726163742062616c616e63650000006044820152606401610496565b604051339082156108fc029083906000818181858888f19350505050158015610a91573d6000803e3d6000fd5b5060405181815233907f770342ee36990141b5b1f4b3b41a184d7968647ac7f0dbfd2d86d566c468027d9060200160405180910390a25050336000908152600260208190526040822080546001600160a01b0319168155600181018390550155565b60036020528160005260406000208181548110610b0f57600080fd5b90600052602060002001600091509150505481565b6001600160a01b0381811660009081526002602052604090205460609116610b5e5760405162461bcd60e51b81526004016104969061169c565b600060045467ffffffffffffffff811115610b7b57610b7b611253565b604051908082528060200260200182016040528015610ba4578160200160208202803683370190505b50905060005b600454811015610c17576001600160a01b0384166000908152600260209081526040808320848452600301909152902054825160ff90911690839083908110610bf557610bf5611686565b9115156020928302919091019091015280610c0f8161166d565b915050610baa565b5092915050565b6040516bffffffffffffffffffffffff19606086901b166020820152603481018490526054810183905260009081906074016040516020818303038152906040528051906020012090506000610ca1827f19457468657265756d205369676e6564204d6573736167653a0a3332000000006000908152601c91909152603c902090565b90506001600160a01b038716610cb78286610f4f565b6001600160a01b031614979650505050505050565b336000908152600260205260409020546001600160a01b0316610d015760405162461bcd60e51b81526004016104969061169c565b6004548110610d4c5760405162461bcd60e51b8152602060048201526017602482015276125b9d985b1a59081cdd589cd8dc9a5c1d1a5bdb881251604a1b6044820152606401610496565b6000818152600160208181526040808420600290810154338652925290922001541015610db25760405162461bcd60e51b8152602060048201526014602482015273496e73756666696369656e742062616c616e636560601b6044820152606401610496565b600081815260016020818152604080842060029081015433865292528320909101805491929091610de49084906116cc565b909155505033600081815260026020908152604080832085845260039081018352818420805460ff191660019081179091559484528252822080549384018155825290200155565b610e34610ea5565b6001600160a01b038116610e995760405162461bcd60e51b815260206004820152602660248201527f4f776e61626c653a206e6577206f776e657220697320746865207a65726f206160448201526564647265737360d01b6064820152608401610496565b610ea281610eff565b50565b6000546001600160a01b031633146107865760405162461bcd60e51b815260206004820181905260248201527f4f776e61626c653a2063616c6c6572206973206e6f7420746865206f776e65726044820152606401610496565b600080546001600160a01b038381166001600160a01b0319831681178455604051919092169283917f8be0079c531659141344cd1fd0a4f28419497f9722a3daafe3b4186f6b6457e09190a35050565b6000806000610f5e8585610f75565b91509150610f6b81610fba565b5090505b92915050565b6000808251604103610fab5760208301516040840151606085015160001a610f9f87828585611104565b94509450505050610fb3565b506000905060025b9250929050565b6000816004811115610fce57610fce6116df565b03610fd65750565b6001816004811115610fea57610fea6116df565b036110375760405162461bcd60e51b815260206004820152601860248201527f45434453413a20696e76616c6964207369676e617475726500000000000000006044820152606401610496565b600281600481111561104b5761104b6116df565b036110985760405162461bcd60e51b815260206004820152601f60248201527f45434453413a20696e76616c6964207369676e6174757265206c656e677468006044820152606401610496565b60038160048111156110ac576110ac6116df565b03610ea25760405162461bcd60e51b815260206004820152602260248201527f45434453413a20696e76616c6964207369676e6174757265202773272076616c604482015261756560f01b6064820152608401610496565b6000807f7fffffffffffffffffffffffffffffff5d576e7357a4501ddfe92f46681b20a083111561113b57506000905060036111bf565b6040805160008082526020820180845289905260ff881692820192909252606081018690526080810185905260019060a0016020604051602081039080840390855afa15801561118f573d6000803e3d6000fd5b5050604051601f1901519150506001600160a01b0381166111b8576000600192509250506111bf565b9150600090505b94509492505050565b6000602082840312156111da57600080fd5b5035919050565b6000815180845260005b81811015611207576020818501810151868301820152016111eb565b506000602082860101526020601f19601f83011685010191505092915050565b84815260806020820152600061124060808301866111e1565b6040830194909452506060015292915050565b634e487b7160e01b600052604160045260246000fd5b600067ffffffffffffffff8084111561128457611284611253565b604051601f8501601f19908116603f011681019082821181831017156112ac576112ac611253565b816040528093508581528686860111156112c557600080fd5b858560208301376000602087830101525050509392505050565b6000806000606084860312156112f457600080fd5b833567ffffffffffffffff81111561130b57600080fd5b8401601f8101861361131c57600080fd5b61132b86823560208401611269565b9660208601359650604090950135949350505050565b60006020808301818452808551808352604092508286019150828160051b87010184880160005b838110156113be57603f19898403018552815160808151855288820151818a870152611396828701826111e1565b838a0151878b0152606093840151939096019290925250509386019390860190600101611368565b509098975050505050505050565b80356001600160a01b03811681146113e357600080fd5b919050565b6000602082840312156113fa57600080fd5b611403826113cc565b9392505050565b60608152600061141d60608301866111e1565b60208301949094525060400152919050565b6000806040838503121561144257600080fd5b61144b836113cc565b946020939093013593505050565b6020808252825182820181905260009190848201906040850190845b81811015611493578351151583529284019291840191600101611475565b50909695505050505050565b600080600080608085870312156114b557600080fd5b6114be856113cc565b93506020850135925060408501359150606085013567ffffffffffffffff8111156114e857600080fd5b8501601f810187136114f957600080fd5b61150887823560208401611269565b91505092959194509250565b600181811c9082168061152857607f821691505b60208210810361076e57634e487b7160e01b600052602260045260246000fd5b601f82111561159257600081815260208120601f850160051c8101602086101561156f5750805b601f850160051c820191505b8181101561158e5782815560010161157b565b5050505b505050565b815167ffffffffffffffff8111156115b1576115b1611253565b6115c5816115bf8454611514565b84611548565b602080601f8311600181146115fa57600084156115e25750858301515b600019600386901b1c1916600185901b17855561158e565b600085815260208120601f198616915b828110156116295788860151825594840194600190910190840161160a565b50858210156116475787850151600019600388901b60f8161c191681555b5050505050600190811b01905550565b634e487b7160e01b600052601160045260246000fd5b60006001820161167f5761167f611657565b5060010190565b634e487b7160e01b600052603260045260246000fd5b60208082526016908201527510da185b9b995b08191bd95cc81b9bdd08195e1a5cdd60521b604082015260600190565b81810381811115610f6f57610f6f611657565b634e487b7160e01b600052602160045260246000fdfea2646970667358221220d9df4f499bd0339700d4224cf548b203b568c8a90a2169c3ee156a4f40dcef4464736f6c63430008110033",
  "devdoc": {
    "kind": "dev",
    "methods": {
      "getActiveSubscriptions(address)": {
        "details": "Gets the active subscriptions for a user",
        "params": {
          "user": "The address of the user"
        },
        "returns": {
          "_0": "An array of booleans representing active subscriptions"
        }
      },
      "owner()": {
        "details": "Returns the address of the current owner."
      },
      "renounceOwnership()": {
        "details": "Leaves the contract without owner. It will not be possible to call `onlyOwner` functions. Can only be called by the current owner. NOTE: Renouncing ownership will leave the contract without an owner, thereby disabling any functionality that is only available to the owner."
      },
      "transferOwnership(address)": {
        "details": "Transfers ownership of the contract to a new account (`newOwner`). Can only be called by the current owner."
      }
    },
    "version": 1
  },
  "userdoc": {
    "kind": "user",
    "methods": {},
    "version": 1
  },
  "storageLayout": {
    "storage": [
      {
        "astId": 7,
        "contract": "contracts/SubscriptionManager.sol:SubscriptionManager",
        "label": "_owner",
        "offset": 0,
        "slot": "0",
        "type": "t_address"
      },
      {
        "astId": 1734,
        "contract": "contracts/SubscriptionManager.sol:SubscriptionManager",
        "label": "subscriptions",
        "offset": 0,
        "slot": "1",
        "type": "t_mapping(t_uint256,t_struct(Subscription)1718_storage)"
      },
      {
        "astId": 1739,
        "contract": "contracts/SubscriptionManager.sol:SubscriptionManager",
        "label": "channels",
        "offset": 0,
        "slot": "2",
        "type": "t_mapping(t_address,t_struct(Channel)1729_storage)"
      },
      {
        "astId": 1744,
        "contract": "contracts/SubscriptionManager.sol:SubscriptionManager",
        "label": "activeSubscriptions",
        "offset": 0,
        "slot": "3",
        "type": "t_mapping(t_address,t_array(t_uint256)dyn_storage)"
      },
      {
        "astId": 1746,
        "contract": "contracts/SubscriptionManager.sol:SubscriptionManager",
        "label": "subscriptionCount",
        "offset": 0,
        "slot": "4",
        "type": "t_uint256"
      }
    ],
    "types": {
      "t_address": {
        "encoding": "inplace",
        "label": "address",
        "numberOfBytes": "20"
      },
      "t_array(t_uint256)dyn_storage": {
        "base": "t_uint256",
        "encoding": "dynamic_array",
        "label": "uint256[]",
        "numberOfBytes": "32"
      },
      "t_bool": {
        "encoding": "inplace",
        "label": "bool",
        "numberOfBytes": "1"
      },
      "t_mapping(t_address,t_array(t_uint256)dyn_storage)": {
        "encoding": "mapping",
        "key": "t_address",
        "label": "mapping(address => uint256[])",
        "numberOfBytes": "32",
        "value": "t_array(t_uint256)dyn_storage"
      },
      "t_mapping(t_address,t_struct(Channel)1729_storage)": {
        "encoding": "mapping",
        "key": "t_address",
        "label": "mapping(address => struct SubscriptionManager.Channel)",
        "numberOfBytes": "32",
        "value": "t_struct(Channel)1729_storage"
      },
      "t_mapping(t_uint256,t_bool)": {
        "encoding": "mapping",
        "key": "t_uint256",
        "label": "mapping(uint256 => bool)",
        "numberOfBytes": "32",
        "value": "t_bool"
      },
      "t_mapping(t_uint256,t_struct(Subscription)1718_storage)": {
        "encoding": "mapping",
        "key": "t_uint256",
        "label": "mapping(uint256 => struct SubscriptionManager.Subscription)",
        "numberOfBytes": "32",
        "value": "t_struct(Subscription)1718_storage"
      },
      "t_string_storage": {
        "encoding": "bytes",
        "label": "string",
        "numberOfBytes": "32"
      },
      "t_struct(Channel)1729_storage": {
        "encoding": "inplace",
        "label": "struct SubscriptionManager.Channel",
        "members": [
          {
            "astId": 1720,
            "contract": "contracts/SubscriptionManager.sol:SubscriptionManager",
            "label": "user",
            "offset": 0,
            "slot": "0",
            "type": "t_address"
          },
          {
            "astId": 1722,
            "contract": "contracts/SubscriptionManager.sol:SubscriptionManager",
            "label": "balance",
            "offset": 0,
            "slot": "1",
            "type": "t_uint256"
          },
          {
            "astId": 1724,
            "contract": "contracts/SubscriptionManager.sol:SubscriptionManager",
            "label": "lastSettled",
            "offset": 0,
            "slot": "2",
            "type": "t_uint256"
          },
          {
            "astId": 1728,
            "contract": "contracts/SubscriptionManager.sol:SubscriptionManager",
            "label": "activeSubscriptions",
            "offset": 0,
            "slot": "3",
            "type": "t_mapping(t_uint256,t_bool)"
          }
        ],
        "numberOfBytes": "128"
      },
      "t_struct(Subscription)1718_storage": {
        "encoding": "inplace",
        "label": "struct SubscriptionManager.Subscription",
        "members": [
          {
            "astId": 1711,
            "contract": "contracts/SubscriptionManager.sol:SubscriptionManager",
            "label": "id",
            "offset": 0,
            "slot": "0",
            "type": "t_uint256"
          },
          {
            "astId": 1713,
            "contract": "contracts/SubscriptionManager.sol:SubscriptionManager",
            "label": "name",
            "offset": 0,
            "slot": "1",
            "type": "t_string_storage"
          },
          {
            "astId": 1715,
            "contract": "contracts/SubscriptionManager.sol:SubscriptionManager",
            "label": "price",
            "offset": 0,
            "slot": "2",
            "type": "t_uint256"
          },
          {
            "astId": 1717,
            "contract": "contracts/SubscriptionManager.sol:SubscriptionManager",
            "label": "duration",
            "offset": 0,
            "slot": "3",
            "type": "t_uint256"
          }
        ],
        "numberOfBytes": "128"
      },
      "t_uint256": {
        "encoding": "inplace",
        "label": "uint256",
        "numberOfBytes": "32"
      }
    }
  }
}